:020000040800F2
:1000000000000220F92A0008812A0008832A00083B
:10001000852A0008872A0008892A000800000000B5
:100020000000000000000000000000008B2A000813
:100030008D2A0008000000008F2A0008912A00087D
:10004000492B0008492B0008492B0008492B0008C0
:10005000492B0008492B0008492B0008492B0008B0
:10006000492B0008492B0008492B0008492B0008A0
:10007000492B0008492B0008492B0008492B000890
:10008000952A0008492B0008492B0008492B000835
:10009000492B0008492B0008492B0008492B000870
:1000A000492B0008492B0008492B0008492B000860
:1000B000492B0008492B0008492B0008492B000850
:1000C000492B0008492B0008492B0008492B000840
:1000D000492B0008492B0008492B0008492B000830
:1000E000492B0008492B0008492B0008492B000820
:1000F000492B0008492B0008492B0008492B000810
:10010000492B0008492B0008492B0008492B0008FF
:10011000492B0008492B0008492B0008492B0008EF
:10012000A12A0008492B0008492B0008492B000888
:10013000492B00080000000000000000492B0008C7
:10014000492B0008492B0008492B0008492B0008BF
:10015000492B0008492B0008492B0008492B0008AF
:10016000492B0008492B0008492B0008492B00089F
:10017000492B0008492B0008492B0008000000000B
:1001800000000000492B00080000000000000000F3
:10019000492B00080000000000000000492B000867
:1001A000000000000000000000000000492B0008D3
:1001B000492B0008492B0008492B0008492B00084F
:0401C000492B0008BF
:1001C40010B5054C237833B9044B13B10448AFF38D
:1001D40000800123237010BD0C00002000000000EB
:1001E400A42B000808B5034B1BB103490348AFF324
:1001F400008008BD0000000010000020A42B0008AF
:1002040053B94AB9002908BF00281CBF4FF0FF3179
:100214004FF0FF3000F07AB9ADF1080C6DE904CE6F
:1002240000F006F8DDF804E0DDE9022304B07047CD
:100234002DE9F0478C460D460446089E002B51D10B
:100244008A4217466DD9B2FA82FEBEF1000F0BD076
:10025400CEF1200C01FA0EF520FA0CFC02FA0EF78E
:100264004CEA050C00FA0EF44FEA174A250CBCFBC5
:10027400FAF81FFA87F90AFB18CC45EA0C4508FB83
:1002840009F3AB420AD9ED1908F1FF3280F023815A
:10029400AB4240F22081A8F102083D44ED1AA4B219
:1002A400B5FBFAF00AFB105544EA054400FB09F9D2
:1002B400A14509D9E41900F1FF3380F00A81A14571
:1002C40040F2078102383C44A4EB090440EA0840A8
:1002D4000021002E61D024FA0EF4002334607360F0
:1002E400BDE8F0878B4207D9002E54D0002186E860
:1002F40021000846BDE8F087B3FA83F1002940F0F5
:100304008E80AB4202D3824200F2FA80841A65EBFB
:1003140003050120AC46002E3FD086E81010BDE84E
:10032400F08712B90127B7FBF2F7B7FA87FEBEF1DF
:10033400000F34D1EB1B3A0C1FFA87FC0121B3FBED
:10034400F2F8250C02FB183345EA03450CFB08F3CD
:10035400AB4207D9ED1908F1FF3002D2AB4200F2EB
:10036400D1808046ED1AA3B2B5FBF2F002FB105522
:1003740043EA05440CFB00FCA44507D9E41900F149
:10038400FF3302D2A44500F2B8801846A4EB0C0453
:1003940040EA08409DE731463046BDE8F087CEF19B
:1003A400200405FA0EF307FA0EF720FA04F83A0CC3
:1003B40025FA04F448EA0308B4FBF2F14FEA1845BD
:1003C40002FB11441FFA87FC45EA044501FB0CF3C8
:1003D400AB4200FA0EF409D9ED1901F1FF3080F0B7
:1003E4008A80AB4240F2878002393D44EB1A1FFAFF
:1003F40088F5B3FBF2F002FB103345EA034500FB3A
:100404000CF3AB4207D9ED1900F1FF386FD2AB42C0
:100414006DD902383D44EB1A40EA01418FE7C1F13E
:10042400200722FA07F88B4005FA01F448EA03038F
:1004340020FA07FE4FEA134CFD404EEA040EB5FBCA
:10044400FCF94FEA1E440CFB19551FFA83F844EAE1
:10045400054509FB08F4AC4202FA01F200FA01FA7C
:1004640008D9ED1809F1FF3043D2AC4241D9A9F1C2
:1004740002091D442D1B1FFA8EFEB5FBFCF00CFB7C
:1004840010554EEA054400FB08F8A04507D9E418C6
:1004940000F1FF3529D2A04527D902381C4440EA8F
:1004A4000940A4EB0804A0FB02894C45C6464D460E
:1004B40015D312D056B1BAEB0E0364EB050404FA5B
:1004C40007F7CB401F43CC40376074600021BDE880
:1004D400F0871846F8E69046E0E6C245EAD2B8EB63
:1004E400020E69EB03050138E4E72846D7E74046E6
:1004F40091E78146BEE7014678E702383C4445E788
:10050400084608E7A8F102083D442BE7704700BFFE
:1005140038B50E4A0E4B054618784FF47A73B3FB80
:10052400F0F31068B0FBF3F000F0BCFA044658B9DD
:100534000F2D09D8024629464FF0FF3000F070FA1B
:10054400044B20461D6038BD012038BD0800002042
:10055400000000200400002008B50B4B1A6842F488
:1005640000721A601A6842F480621A601A6842F4CF
:1005740080721A60032000F041FA0020FFF7C8FFE0
:1005840002F0D0F8002008BD003C0240034A044BAE
:1005940011681B780B441360704700BF28000020CB
:1005A40000000020014B1868704700BF280000209D
:1005B40038B50446002800F09B80056C25B902F08C
:1005C400D1F8656484F83C50236CDB0600F18E801E
:1005D400236C23F4885323F0020343F002032364BF
:1005E400444B5A6822F440325A605A6861680A439C
:1005F4005A60236821695A6822F480725A605A68E2
:1006040042EA01225A605A68A16822F040725A6094
:100614005A680A435A609A68E16822F400629A6050
:100624009A680A439A603449A26A8A4252D0996805
:1006340021F07061996099680A439A609A68E16A46
:1006440022F040529A609A680A439A609A68217E1E
:1006540022F002029A609A6842EA41029A6094F88F
:100664002020002A3ED05A68616A42F400625A602F
:100674005A6822F460425A605A68013942EA4132A7
:100684005A60DA6AE16922F47002DA62DA6A0139DC
:1006940042EA0152DA629A6894F8301022F4007245
:1006A4009A609A6842EA41229A609A68616922F4DF
:1006B40080629A609A68002042EA81229A606064AB
:1006C400236C23F0030343F001032364002384F821
:1006D4003C3038BD9A6822F070629A609A6822F0C1
:1006E4004052B2E75A6822F40062C9E70120EDE7FC
:1006F400012038BD002301400100000F37B5134627
:100704000022019290F83C20012A044677D0056823
:10071400012280F83C20AA68D00705D5AA68D20730
:1007240015D4002003B030BDAA6842F00102AA60CB
:10073400344A1068344AB0FBF2F000EB40000190F8
:10074400019A002AEAD0019A013A0192F8E7206C52
:1007540020F4E06020F0010040F4807020646A68B6
:10076400500541BF206C20F4405040F48050206478
:10077400226CA06B12F480521CBF626C22F0060241
:100784006264002284F83C20204AC263204A026446
:10079400204AC2646FF022022A606A6842F08062D2
:1007A4006A60AA6842F48072AA600A4605F14C01A4
:1007B40000F022FA184A1949536813F01F0F2368EE
:1007C4001AD18B4206D001F580718B420BD152684D
:1007D400D206A6D1986810F04050A2D19A6842F08F
:1007E40080429A609EE70E498B429AD1526802F089
:1007F4001F020F2AEED994E78B4292D1EAE7022036
:1008040090E700BF0800002040420F004F08000896
:100814002D08000839080008002301400020014089
:10082400002201407047704708B5806BFFF7FBFF5B
:1008340008BD7047806B08B540230364436C43F0E4
:1008440004034364FFF7F5FF08BD836B1A6C12F0D1
:10085400500F10B51A6C23D142F400721A641A684E
:10086400916811F0405F17D1197EA9B9D16A11F4CA
:10087400700F02D0916848050ED4516821F0200110
:1008840051601A6C22F480721A641A6CD1045EBF2F
:100894001A6C42F001021A641846FFF7C3FF10BD38
:1008A400D20603D51846FFF7C4FF10BD9B6BBDE805
:1008B4001040DB6C18470000F7B50023019390F853
:1008C4003C30012B6ED00D6804688A680123092D21
:1008D40080F83C30AEB22AD906EB4603E7681E3BEB
:1008E4004FF0070E0EFA03FE27EA0E07E760E768EB
:1008F40002FA03F33B43E3604A68062A4FEA8203A1
:1009040025D81344676B591F1F238B4027EA030321
:100914006363626B06FA01F111436163324B9C42DB
:1009240034D0002380F83C30184603B0F0BD27696A
:1009340005EB45034FF0070E0EFA03FE27EA0E07F8
:100944002761276902FA03F33B432361D4E70C2AA6
:100954000ED81344216BA3F123021F23934021EAF1
:1009640003032363236B06FA02F21A432263D5E7D7
:100974001344E16A413B1F229A4021EA0202E262E7
:10098400E26A06FA03F11143E162C7E7122D0BD1C3
:10099400164B5A6822F400025A605A6842F48002E4
:1009A4005A60BEE70220C0E7114B9D4201D0112DD1
:1009B400B7D10E4B5A6822F480025A605A6842F446
:1009C40000025A600A4B9D42ABD10A4B0A4A1B688B
:1009D400B3FBF2F20A2353430193019B002BA0D0F3
:1009E400019B013BF8E700BF0020014000230140C8
:1009F400120000100800002040420F00074AD3688C
:100A040023F4E0631B041B0C43F0BF63000243F4B4
:100A1400003300F4E0600343D360704700ED00E06E
:100A2400174B30B5DC68C4F30224C4F10703251D59
:100A3400042B28BF0423062D4FF0010505FA03F308
:100A440003F1FF338CBF033C00241940A14005FA95
:100A540004F4013C2240002842EA01024FEA021257
:100A6400ADBF00F1604000F00F00064B00F561409F
:100A7400B5BFD2B2D2B21A5480F8002330BD00BF41
:100A840000ED00E014ED00E0002808DB420901233A
:100A940000F01F0003FA00F0014B43F822007047F6
:100AA40000E100E00138B0F1807F0AD2064B074A2A
:100AB4005860F02182F823100020072298601A6001
:100AC40070470120704700BF10E000E000ED00E037
:100AD4000368DAB223F47F7323F003031821103A76
:100AE400B2FBF1F20449032A88BF0433895C8365AD
:100AF400C165806D704700BFBC2B000870B504460B
:100B0400FFF750FD0546002C71D0002384F83430E3
:100B14002268022384F83530136823F0010313603C
:100B240021680B68D8073CD40B68324D6268A06911
:100B34001D40A3681343E2681343226913436269A7
:100B44001343E26903431343226A1343626A042A88
:100B540043EA050301BF266BE56A35432B430B606B
:100B64004B69042A23F0070343EA02030BD1A26A68
:100B7400E56A13433DB1F8B9012A2DD001D3022A05
:100B840001D1EA012BD44B612046FFF7A1FFE26DAE
:100B94003F239340836000200123606584F835304F
:100BA40070BDFFF7FFFC401B0528B9D920236365FE
:100BB400032084F8350070BDB0F5005F13D1032A1B
:100BC400E1D801A050F822F0E30B0008870B0008DD
:100BD400E30B0008DD0B0008B5F1C07FD3D140233F
:100BE40063650120E5E7022AF9D9032AC8E7012051
:100BF40070BD00BF3F8010F070B590F83440012CF8
:100C040036D0012480F8344090F83540866D012CAC
:100C14004FF000054FF0020428D180F835400468F5
:100C24004565256825F48025256063608368402B2D
:100C34000EBFA260A160E260C26D08BFE1603F2305
:100C44009340B360236843F016032360636943F061
:100C540080036361036C1BB1236843F008032360C2
:100C6400236843F001032360002070BD80F83450F2
:100C7400022070BDF7B5002301935A4B856D1F68A0
:100C8400C36D2E6808229A40164204460CD00168AF
:100C94000868400708D5086820F004000860AA60C6
:100CA400626D42F00102626501229A40164208D048
:100CB40021684969090641BFAA60626D42F00202D7
:100CC400626504229A40164208D0216809688807A0
:100CD40041BFAA60626D42F00402626510229A402C
:100CE400164210D02368196809070CD5AA601A683F
:100CF400500335D51B68190301D4236C00E0A36CA1
:100D04000BB120469847E16D20228A40164238D024
:100D140023681868C60634D5AA6094F83520052AD5
:100D24001A6825D122F016021A605A6922F080024C
:100D34005A61226C0AB9A26C1AB11A6822F008022C
:100D44001A603F238B40AB60002384F834300123C6
:100D540084F83530236D0BB12046984703B0F0BDBD
:100D64001A68D2055EBF1A6822F008021A60C4E746
:100D7400500328D51B68190332D4636C0BB1204689
:100D84009847636D002BE9D0636DDA0719D5052305
:100D9400226884F83530136823F0010313604FF49C
:100DA4001653B7FBF3F7019B01339F42019302D320
:100DB4001368DB07F7D4002384F83430012384F864
:100DC4003530E36CC7E71A6812F4807208D11968E9
:100DD40021F010011960012384F8342084F835309F
:100DE400E36BCBE7080000202DE9F04F85B00B68DA
:100DF400DFF8A081654ADFF8A091019300234FF04A
:100E0400010E019C0EFA03FE0EEA0406B64540F0FC
:100E1400AA804C6824F01007022F16D14FEAD30A97
:100E240000EB8A0A03F0070BDAF820504FEA8B0B29
:100E34004FF00F0C0CFA0BFC25EA0C0C0D6905FAAB
:100E44000BF545EA0C05CAF820504FEA430A03257E
:100E5400D0F800B005FA0AF5ED4304F0030C0BEAF0
:100E6400050B0CFA0AFC013F4CEA0B0C012FC0F8ED
:100E740000C011D8876807EA050BCF6807FA0AFC97
:100E84004CEA0B078760476827EA0E0EC4F3001785
:100E94009F4047EA0E074760C7683D408F6807FADE
:100EA4000AF73D43C560E5005DD54FF0000BCDF872
:100EB4000CB0D8F84470364D47F48047C8F84470F5
:100EC400D8F8447007F480470397039F23F003077F
:100ED40007F1804707F59C3703F0030CD7F808A007
:100EE4004FEA8C0C4FF00F0E0EFA0CFEA8422AEAC1
:100EF4000E0E3FD005F58065A8423DD005F580650E
:100F0400A8423BD005F58065A84239D005F5806537
:100F1400A84237D0484537D005F50065A84214BF2C
:100F24000725062505FA0CF545EA0E05BD6015688A
:100F3400F74314F4803F0CBF3D40354315605568BA
:100F440014F4003F0CBF3D4035435560956814F4DC
:100F5400801F0CBF3D4035439560D568A40254BF43
:100F64003D403543D5600133102B7FF448AF05B0C5
:100F7400BDE8F08F5D46D5E70125D3E70225D1E72B
:100F84000325CFE70425CDE70525CBE7003C014049
:100F94000000024000380240001402400AB181619E
:100FA40070470904FBE700002DE9F0410D460446B3
:100FB40010B90120BDE8F081444B1A6802F00F0219
:100FC4008A4228D321688F072DD4C80740D43F4BC9
:100FD4001A6802F00F02954266D3226851076CD456
:100FE400130707D53A4A2169936823F4604343EA17
:100FF400C103936000F092F8354B364A9B68C3F303
:101004000313D35CD840344B18600020FFF780FAF8
:101014000020BDE8F081CAB21A701B6803F00F0308
:101024009942C6D1CEE72A4B11F0040F1EBF9A682D
:1010340042F4E0529A600E0742BF9A6842F460425A
:101044009A609A68A06822F0F00202439A60BCE7B2
:1010540062681F4B012A1DD11B6813F4003FA8D0FE
:101064001B4EB36823F003031343B360FFF79AFAEC
:1010740041F288380746B368626803F00C03B3EBA7
:10108400820FA4D0FFF78EFAC01B4045F3D903208A
:10109400BDE8F081911E01291B6802D813F0007F7E
:1010A400DDE713F0020FDAE7EAB21A701B6803F007
:1010B4000F039D427FF47DAF8FE70549E0688B689D
:1010C40023F4E05303438B608AE700BF003C0240F3
:1010D40000380240C42B000808000020044B054AD5
:1010E4009B68C3F38223D35C034A1068D8407047DB
:1010F40000380240D42B000808000020044B054AA5
:101104009B68C3F34233D35C034A1068D8407047EA
:1011140000380240D42B000808000020204908B5FC
:101124008B6803F00C03082B07D00C2B20D01D4A2E
:101134001D48042B18BF104608BD4A684B6849680F
:1011440013F4800314BF18481648C1F3881118BF5C
:10115400002302F03F02A1FB0001FFF751F8104BFE
:101164005B68C3F3014301335B00B0FBF3F008BDDC
:101174004A684B68496813F4800314BF0A48094855
:10118400C1F3881118BF002302F03F02A1FB000144
:10119400FFF736F8024B5B68C3F30273E5E700BF61
:1011A400003802400024F40000127A0003682DE99C
:1011B400F341DF07044610D423689E0767D42368ED
:1011C4001A0700F1B28023685B0700F1D080A2699E
:1011D400002A40F0398100201EE0974B9A6802F003
:1011E4000C02042A10D09A6802F00C02082A02D1D8
:1011F4005B685D0208D4904B9A6802F00C020C2ADA
:101204000DD15A6850020AD58B4B1B689903D3D56C
:101214006368002BD0D1012002B0BDE8F081626880
:10122400B2F5803F11D11A6842F480321A60FFF798
:10123400B9F9814D06462B689A03BDD4FFF7B2F97C
:10124400801B6428F7D90320E6E77B4DB2F5A02F75
:101254002B6807D143F480232B602B6843F480333D
:101264002B60E4E723F480332B602B6823F4802382
:101274002B60002ADBD1FFF795F906462B689B0308
:101284009AD5FFF78FF9801B6428F7D9DBE76A4BFF
:101294009A6812F00C0F10D09A6802F00C02082A17
:1012A40002D15B685F0208D5634A936803F00C03BC
:1012B4000C2B11D153685E020ED45F4B1A6895074C
:1012C40002D5E268012AA6D11A68216922F0F8023F
:1012D40042EAC1021A6072E7E268584BB2B10122D5
:1012E4001A60FFF75FF9544D06462B68980707D537
:1012F4002B68226923F0F80343EAC2032B605EE7FC
:10130400FFF750F9801B0228EFD99CE71A60FFF71A
:1013140049F9494D06462B6899077FF550AFFFF709
:1013240041F9801B0228F6D98DE76269444B7AB1F2
:1013340001221A60FFF736F93F4D06466B6F9F078F
:101344003FF541AFFFF72EF9801B0228F6D97AE763
:101354001A60FFF727F9384D06466B6F98077FF53B
:1013640032AFFFF71FF9801B0228F6D96BE7324B27
:101374001A6C12F0805228D101921A6C42F08052F9
:101384001A641B6C03F080530193019B01262D4DBD
:101394002B68D9051BD5A368274D012B27D12B6FAB
:1013A40043F001032B67FFF7FDF8234D074641F295
:1013B40088382B6F9B0739D5002E3FF408AF1E4A9F
:1013C400136C23F08053136401E70026DFE72B68D6
:1013D40043F480732B60FFF7E5F807462B68DA05C2
:1013E400D9D4FFF7DFF8C01B0228F7D92BE7052B68
:1013F40004D12B6F43F004032B67D0E72A6F22F04C
:1014040001022A672A6F22F004022A67002BCAD13C
:10141400FFF7C8F841F2883807462B6F9807CBD5F9
:10142400FFF7C0F8C01B4045F7D90CE7FFF7BAF83F
:10143400C01B4045BDD906E70038024000004742C2
:10144400800E474200700040234DAB6803F00C034C
:10145400082B3FF4E0AE214E0023022A33602DD145
:10146400FFF7A0F807462B68990121D4226AE369A3
:101474001343626A43EA8213E26A43EA0263226B19
:1014840043EA0273A26A144C5208013A43EA024343
:101494006B6001233360FFF785F8054623689A01E2
:1014A4003FF599AEFFF77EF8401B0228F6D9CAE64D
:1014B400FFF778F8C01B0228D5D9C4E6FFF772F805
:1014C40004462B689B017FF586AEFFF76BF8001B83
:1014D4000228F6D9B7E600BF003802406000474250
:1014E400036A23F001030362036A70B544688269E6
:1014F4000D6822F073022A438D6823F002032B4304
:101504000E4DA84202D00E4EB04210D1CE6823F048
:1015140008033343A84223F0040302D0084DA84231
:1015240005D14D698E6924F4407435432C434460DD
:1015340082614A684263036270BD00BF00000140DB
:1015440000040140036A23F480730362036A70B5E4
:101554004468C2690D6822F073022A438D6823F43B
:10156400007343EA0523114DA84203D005F58065B5
:10157400A84214D1CD6823F4006343EA05230B4D3C
:10158400A84223F4806303D005F58065A84206D100
:101594004D698E6924F44054354344EA051444608B
:1015A400C2614A68C263036270BD00BF00000140AB
:1015B400036A23F480530362036A30B54468C26942
:1015C4000D6822F4E64242EA05228D6823F40053B2
:1015D40043EA0533084DA84203D005F58065A842C7
:1015E40004D14D6924F4804444EA85144460C26102
:1015F4004A680264036230BD000001407047000085
:10160400304A0368904212D0B0F1804F0FD0A2F557
:101614007C4290420BD002F58062904207D002F5E2
:101624008062904203D002F57842904219D14A6810
:1016340023F070031343234A904229D0B0F1804F22
:1016440026D0A2F57C42904222D002F580629042DC
:101654001ED002F5806290421AD002F57842904280
:1016640016D0194A904213D002F5806290420FD0EE
:1016740002F5806290420BD0A2F59832904207D0D6
:1016840002F58062904203D002F58062904203D159
:10169400CA6823F4407313434A6923F08003134355
:1016A40003608B68C3620B688362064B984203D065
:1016B40003F58063984201D10B69036301234361FD
:1016C400704700BF000001400040014010B50446CF
:1016D400A0B190F83D3003F0FF021BB980F83C2024
:1016E40001F0BAF8022384F83D302068211DFFF789
:1016F40087FF012384F83D30002010BD012010BD78
:1017040010B50446A0B190F83D3003F0FF021BB9B8
:1017140080F83C20FFF772FF022384F83D302068F4
:10172400211DFFF76DFF012384F83D30002010BD1B
:10173400012010BD036A23F010030362036A70B52D
:10174400446882690D6822F4E64242EA05228D6803
:1017540023F0200343EA0513104DA84203D005F5F6
:101764008065A84214D1CD6823F0800343EA0513B1
:101774000A4DA84223F0400303D005F58065A84232
:1017840006D14D698E6924F44064354344EA8504E6
:10179400446082614A688263036270BD0000014054
:1017A40038B590F83C30012B04464FF0020025D0A8
:1017B400012384F83C3084F83D000C2A18D8DFE873
:1017C40002F0071717171E1717172F1717174000C0
:1017D4002068FFF785FE236809699A6942F00802C8
:1017E4009A619A6922F004029A619A690A439A6199
:1017F4000123002084F83D3084F83C0038BD206883
:10180400FFF798FF236809699A6942F400629A61B4
:101814009A6922F480629A619A6942EA0122E6E7AF
:101824002068FFF78FFE23680969DA6942F008022D
:10183400DA61DA6922F00402DA61DA690A43DA6108
:10184400D6E72068FFF7B4FE23680969DA6942F431
:101854000062DA61DA6922F48062DA61DA6942EA02
:101864000122ECE710B584680A4324F47F4442EA79
:1018740003232343836010BD90F83C30012B70B5E3
:1018840004464FF0020019D084F83D00206801237B
:1018940084F83C30836823F47F4323F07703836028
:1018A4000B68402B65D015D8102B0CD007D853B13A
:1018B4000123002084F83D3084F83C0070BD202BC7
:1018C40001D0302BF4D1826843F0070322F0700278
:1018D40013431AE0602B34D019D8502BE8D14A684E
:1018E400CE68016A056A25F001050562836921F065
:1018F4000A0123F0F00343EA06130A4383610262F8
:10190400836823F0700343F057038360D0E7702BA0
:101914000CD0B3F5005FCBD1CB684A688968FFF778
:10192400A1FF2268936843F4804308E0CB684A68C7
:101934008968FFF797FF2268936843F07703936001
:10194400B6E74D68CE68016A21F010010162826930
:10195400036A22F4704223F0A00343EA051342EA27
:10196400063282610362836823F0700343F06703E5
:10197400CBE74A68CE68016A056A25F0010505626D
:10198400836921F00A0123F0F00343EA06130A43B2
:1019940083610262836823F0700343F04703B4E772
:1019A400036A01F01F0110B501248C4023EA0403EB
:1019B4000362036A8A401A43026210BD10B50446EA
:1019C40001220068FFF7ECFF23680B4A93420ED014
:1019D40002F5806293420AD09A6802F00702062A4E
:1019E40003D01A6842F001021A60002010BD5A6C3C
:1019F40042F400425A64EFE70000014090F83C30A2
:101A0400012B30B54FF0020314D0046880F83D3048
:101A14006268A3680D68496822F0700223F08003AD
:101A24000B432A436260A360012380F83D30002306
:101A340080F83C30184630BD90F83C30012B1FD064
:101A4400CB688A6823F4407313434A6823F48063A1
:101A540013430A6823F4006313430A6923F480538D
:101A640013434A6923F400531343CA6923F480439C
:101A7400134302685364002380F83C3018467047CF
:101A8400022070470368DA6822F49072DA605A69B7
:101A940022F001025A61202380F83A307047000096
:101AA4002DE9F0470668C2683369C16923F44053DD
:101AB40013433361044683680069F2680343606931
:101AC40022F41642034322F00C020B431343F36047
:101AD4007369A26923F440731343B1F5004F736132
:101AE4007A4B7CD19E4203D003F580639E4244D15D
:101AF400FFF704FB192505FB00F360684FF0640948
:101B04004000B3FBF0F3B3FBF9F34FEA0318FFF71C
:101B1400F5FA636868435B00B0FBF3F7FFF7EEFA8E
:101B2400636868435B00B0FBF3F3B3FBF9F309FBB1
:101B34001373DB003233B3FBF9F35B0003F4F87780
:101B4400FFF7DCFA626868435200B0FBF2FAFFF771
:101B5400D5FA636868435B00B0FBF3F3B3FBF9F3B6
:101B640009FB13A3DB003233B3FBF9F303F00703E0
:101B740043443B44B360BDE8F087FFF7AFFA19254F
:101B840005FB00F360684FF064094000B3FBF0F319
:101B9400B3FBF9F34FEA0318FFF7A0FA636868434D
:101BA4005B00B0FBF3F7FFF799FA636868435B00E7
:101BB400B0FBF3F3B3FBF9F309FB1373DB0032332C
:101BC400B3FBF9F35B0003F4F877FFF787FA626875
:101BD40068435200B0FBF2FAFFF780FAB9E79E427D
:101BE40002D03B4B9E4240D1FFF788FA6768192523
:101BF4004FF0640905FB00F3BF00B3FBF7F3B3FB3D
:101C0400F9F31F01FFF77AFA636868439B00B0FB9E
:101C1400F3F8FFF773FA636868439B00B0FBF3F3D0
:101C2400B3FBF9F309FB13831B013233B3FBF9F361
:101C340003F0F008FFF762FA626868439200B0FBB1
:101C4400F2FAFFF75BFA636868439B00B0FBF3F3B7
:101C5400B3FBF9F309FB13A31B013233B3FBF9F311
:101C640003F00F0343EA080383E7FFF737FA6768D3
:101C740019254FF0640905FB00F3BF00B3FBF7F32C
:101C8400B3FBF9F31F01FFF729FA636868439B006C
:101C9400B0FBF3F8FFF722FA636868439B00B0FBDC
:101CA400F3F3B3FBF9F309FB13831B013233B3FBE7
:101CB400F9F303F0F008FFF711FA62686843920041
:101CC400B0FBF2FAFFF70AFABDE700BF00100140CB
:101CD40000140140F8B504460E4617461D46216817
:101CE4000B6836EA030301D10020F8BD6B1CF7D062
:101CF40095B92368DA6822F4D072DA605A6922F05E
:101D040001025A61202384F8393084F83A300023E0
:101D140084F838300320F8BDFEF744FCC01B85422C
:101D2400DDD2E6E710B5044640B390F8393003F04D
:101D3400FF021BB980F8382000F04CFE22682423EF
:101D440084F83930D36823F40053D3602046FFF776
:101D5400A7FE23681A6922F490421A615A6922F094
:101D64002A025A61DA6842F40052DA600020202321
:101D7400E06384F8393084F83A3010BD012010BD96
:101D84002DE9F0411F4690F83930202B04460D46CA
:101D940090464FD100294AD0002A48D090F83830D4
:101DA400012B47D0012380F838300023C36321235B
:101DB40080F83930FEF7F6FBA4F824800646A4F830
:101DC4002680E38C9BB26BB93B46324640212046C9
:101DD400FFF780FFB0B9202384F8393084F8380045
:101DE400BDE8F081E38C013B9BB2E384A368B3F5C7
:101DF400805F32463B464FF0800120460ED1FFF70C
:101E040069FF10B10320BDE8F0812B882268C3F379
:101E140008035360236943B90235D2E7FFF75AFF39
:101E24000028EFD123682A785A600135C9E70120D8
:101E3400BDE8F0810220BDE8F0810000134690F86F
:101E44003A20202A73B5054638D1002934D0002B16
:101E540032D090F83820012A30D00122002480F8B2
:101E640038202222C4638162838580F83A20406B43
:101E7400134AC2632E68134A0264134AC264046597
:101E84000A46311DFEF7B8FE2B6801941A680192C8
:101E94005A680192019ADA6885F8384042F48072EF
:101EA400DA605A6942F001025A615A6942F040020A
:101EB4005A61204602B070BD0120FBE70220F9E719
:101EC400D11E00080B1F0008171F000808B503687F
:101ED400826B1B6813F4807310D1D3851368D9689F
:101EE40021F48071D960596921F00101596159695E
:101EF40021F040015961202382F83A30104600F065
:101F0400FDFA08BD704708B5806BFFF7FBFF08BDFD
:101F14007047816B08B50B685A6991F8390021281C
:101F24000AD1120608D50022CA84DA6822F0C00257
:101F3400DA60202281F839205B6991F83A20222A5C
:101F440006D15B0604D50023CB850846FFF79AFD2E
:101F5400CB6B43F01003CB630846FFF7D9FF08BDF2
:101F640030B595B03422002107A800F011FE0021FD
:101F7400142202A800F00CFE00251C4B00951A6CDC
:101F840042F080521A641B6C194A03F08053009388
:101F9400009B0195136823F4404343F4804313608A
:101FA40013680E9503F440430193019B01230A93A4
:101FB40010230B930F934FF4A8730224109307A8D4
:101FC4000423119307940D9412941394FFF7EEF8DD
:101FD4000F23029321464FF4805302A803940495DF
:101FE40005930695FEF7E0FF15B030BD00380240BA
:101FF400007000402DE980489FB00024B84DB94ED0
:10200400FEF7AAFAFFF7ACFF1422002116A800F08D
:10201400BFFD04942B6BB44843F004032B632B6B78
:1020240003F004030493049B05942B6B43F0800397
:102034002B632B6B03F080030593059B06942B6B9A
:1020440043F001032B632B6B03F001030693069B00
:1020540007942B6B43F002032B632B6B03F00203F7
:102064000793079B08942B6B43F008032B632B6B9C
:1020740003F008030893224641F6FC71089BFEF71F
:102084008DFF224649F280019848FEF787FF2246D9
:102094004FF2F6519648FEF781FF224604219548F7
:1020A400FEF77CFF4FF40057934B8F48169716A901
:1020B4004FF0010817931894FEF796FE41F6FC734F
:1020C40016A989481693CDF85C8018941994FEF7E4
:1020D4008BFE49F2800316A984481693CDF85C80E0
:1020E40018941994FEF780FE4FF2F65316A980480F
:1020F40016934FF0040BCDF85C8018941994FEF7F6
:1021040073FE16A97B48CDF85C80CDF858B01894BE
:102114001994FEF769FE02942B6B43F480032B633E
:102124002B6B03F480030293029B03942B6B43F405
:1021340000132B632B6B714D03F4001322462146CD
:1021440003931020039BFEF76BFC1020FEF79CFC0E
:10215400224621463820FEF763FC3820FEF794FC23
:102164002146102216A800F013FD654AC6F8108017
:102174004FF4003386E80C004FF08053F3624FF0C5
:102184006063B36230460623F36186F83080C6F894
:102194001480B460347686F82040F460FEF708FAC0
:1021A400062316A93046CDF85C8018931694FEF7E2
:1021B40083FB022316A93046CDF858801793FEF707
:1021C4007BFB032316A930461793CDF858B0FEF7CE
:1021D40073FB082316A930461693CDF85CB0FEF7BE
:1021E4006BFB0B23169316A9052330461793FEF7B2
:1021F40063FB0A23169316A9062330461793FEF7AA
:102204005BFB102221460BA800F0C2FC1C222146D5
:102214000FA809940A9400F0BBFC2022214616A8BA
:1022240000F0B6FC374BAC6040F6FF794FF0C808BD
:10223400284685E808014FF4805AC5F80C902C61B3
:102244006C61AC61FFF742FA0BA92846CDF82CA0CB
:10225400FFF712FB2846FFF753FA09A92846099409
:102264000A94FFF7CBFB60230F93224664230FA944
:102274002846109311941294139414941594FFF710
:102284008FFA65235A460FA9284610930193FFF746
:1022940087FA662210920FA908222846FFF780FACF
:1022A400672210920FA90C222846FFF779FA16A983
:1022B40028461B9716941794189419941A941D94ED
:1022C400FFF7BAFB2846104F00F012FB10222146FC
:1022D4000FA800F05DFC21461C2216A80B9415E003
:1022E400003802403401002000080240000002408F
:1022F40000040240000C02400000211000020020F3
:102304000020014000000140400200200C9400F035
:102314003FFC4FF08042384687E80401C7F80C9030
:10232400BC603C61BC61FFF7D1F90FA93846CDF818
:102334003CA0FFF7A1FA3846FFF7E2F90BA93846AB
:102344000B940C94FFF75AFB6023169322466423E4
:1023540016A93846179318941A94FFF721FA019B8B
:1023640017935A4616A93846FFF71AFA384600F06A
:10237400BFFA102221460FA8DFF8748100F008FC90
:102384001C22214616A80B940C9400F001FC53491E
:10239400C8F80C904422404688E80600C8F8084073
:1023A400C8F81040C8F81840FFF790F90FA9404644
:1023B400CDF83CA0FFF760FA4046FFF7A1F90BA95E
:1023C40040460B940C94FFF719FB6023224616A990
:1023D40040461693CDF85C9018941A94FFF7E0F9F0
:1023E400404600F085FA1022214616A800F0D0FBE2
:1023F400DFF800913A480F94542389E809004FF418
:10240400FA634846C9F80C301094C9F80840C9F872
:102414001040C9F81440C9F81840FFF757F916A935
:102424004846CDF858A0FFF727FA20230FA94846BD
:10243400DFF8C4A00F931094FFF7E0FA294BCAF811
:1024440008404FF4E13E8AE8084050460C23CAF89D
:1024540014300193CAF80C40CAF81040CAF8184066
:10246400CAF81C40FFF75EFC06221F493046FEF7FF
:1024740045F928221D495046FFF7E0FC214628462D
:10248400FFF79CFA59462846FFF798FA0821284690
:10249400FFF794FA019B28461946FFF78FFA214665
:1024A4003846FFF78BFA59463846FFF787FA214634
:1024B4004046FFF783FA21464846FFF77FFA2B6828
:1024C4005C639C63DC631C643B685C639C63D8F85A
:1024D40000305C63D9F800305C63FEE70004004020
:1024E40000040140004400407C0100200C01002055
:1024F400CC0000208C000020800200202DE9F04157
:102504007D4B93F827201D46002A47D17B4A187833
:102514005978126841EA002151639878D97841EAE0
:10252400002191631879597941EA0021D16398799E
:10253400D97941EA00211164714A187A11685A7AEA
:1025440042EA00224A639A7ADB7A43EA02238B63E3
:102554006C4B6D491A684A70100A5A680870CA7040
:10256400100A9A6888704A71100ADA680871CA7188
:10257400100A1A695B6988714A72100A1A0A087289
:102584008A72CB720C2205236048FFF7F9FB2822DC
:1025940059495E48BDE8F041FFF750BC012AD7D144
:1025A4005B4F5C4EDFF874810C240C2C09D12A7B20
:1025B40080215948FEF7F2FC0134E4B2282CF4D10E
:1025C400C6E70D2C03D16A7B10213846F2E70E2CA6
:1025D40002D1AA7B2021F8E70F2C03D1EA7B022148
:1025E4003046E7E7102C02D12A7C0421F8E7112CAD
:1025F40003D16A7C4FF48061F2E7122C03D1AA7CE8
:102604004FF48051ECE7132C03D1EA7C4FF40051D2
:10261400E6E7142C03D12A7D4FF48041E0E7152C22
:1026240003D16A7D4FF40041DAE7162C02D1AA7D6A
:102634004021CAE7172C02D1EA7D8021C5E7182C76
:1026440003D12A7E4FF48071BFE7192C03D16A7E2F
:102654004FF40071B9E71A2C03D1AA7E4FF48051CC
:10266400A7E71B2C03D1EA7E4FF40041A1E71C2C01
:1026740003D12A7F4FF48061A7E71D2C03D16A7F21
:102684004FF40061A1E71E2C03D1AA7F4FF48051BF
:102694009BE71F2C03D1EA7F042140468AE7202CC4
:1026A40003D195F8202010219AE7212C03D195F825
:1026B4002120202194E7222C03D195F822204021C7
:1026C4008EE7232C03D195F82320802188E7242C3E
:1026D40004D195F824204FF4807181E7252C03D18F
:1026E40095F82520042170E7262C7FF465AF95F832
:1026F4002620082169E700BF0C0100200002002009
:10270400400200207C010020F4010020800200200F
:10271400000802400004024000000240000C024095
:102724007047000007B50E4B002100915A6C42F42B
:1027340080425A645A6C02F480420092009A0191D9
:102744001A6C42F080521A641B6C03F0805301939C
:102754000720019BFEF752F903B05DF804FB00BFAC
:102764000038024070B514228AB0064600210DEBF1
:10277400020000F00DFA3268314B9A425DD103F544
:102784008C33002501955A6C2E4842F480725A64A9
:102794005A6C02F480720192019A02951A6B42F00B
:1027A40004021A631A6B02F004020292029A03955D
:1027B4001A6B42F001021A631A6B02F001020392CF
:1027C400039A04951A6B42F002021A631B6B03F01E
:1027D40002030324049305A9049B05940694FEF7BD
:1027E40003FB132305A91848059306940795FEF7E0
:1027F400FBFA01231548059305A906940795144C83
:10280400FEF7F2FA134BA56084E828004FF48063C6
:1028140023614FF4805363614FF48043A3612046E6
:102824004FF48073E560E36125626562FEF766F943
:1028340008B1FFF775FFB463A6630AB070BD00BFAB
:102844000020014000080240000002400004024051
:1028540094010020106402400368214A934284B02A
:102864000DD1002300931F4B5A6C42F001025A64AD
:102874005B6C03F001030093009B04B07047B3F159
:10288400804F0CD100230193164B1A6C42F00102C5
:102894001A641B6C03F001030193019BEDE7124AD8
:1028A40093420CD1002302930E4B1A6C42F00202A5
:1028B4001A641B6C03F002030293029BDDE70B4ACC
:1028C4009342DAD100230393064B5A6C42F002027E
:1028D4005A645B6C03F002030393039BCDE700BFD0
:1028E40000000140003802400004004000040140A0
:1028F40070B514228AB0044600210DEB020000F0EA
:1029040047F923682E4A934215D1002301932D4B96
:102914001A6B42F001021A631B6B03F0010301936B
:10292400019B4FF4706305930223069301230993DB
:1029340005A925482CE0B3F1804F2DD103F50E33C2
:10294400002402941A6B204842F001021A631A6BA5
:1029540002F001020292029A03941A6B42F00202FC
:102964001A631B6B03F002030393039B02262023C9
:10297400012505A9059306960995FEF735FA4FF446
:10298400007312480593069607940894099505A9BF
:10299400FEF72AFA0AB070BD0D4A9342FAD1002319
:1029A4000493084B1A6B42F001021A631B6B03F089
:1029B40001030493049B4023059302230693B6E783
:1029C40000000140003802400000024000040240C0
:1029D4000004004070B5064688B01422002103A804
:1029E40000F0D6F83268214B9A423CD1002503F519
:1029F400FA3301951A6C1E481E4C42F400321A64D4
:102A04001A6C02F400320192019A02951A6B42F098
:102A140001021A631B6B03F001030293029B0C2354
:102A2400039302230493012305930323069303A929
:102A340007230793FEF7D8F90F4AA5604FF0006308
:102A440084E80C0020464FF48063E56023616561EF
:102A5400A561E56125626562FEF750F808B1FFF7EC
:102A64005FFE7463A66308B070BD00BF00440040FD
:102A7400000002402C000020886002407047FEE7FE
:102A8400FEE7FEE7FEE7704770477047FDF77EBD3F
:102A94000148FEF7EFB800BF2C0000200148FEF704
:102AA400E9B800BF940100200F49D1F8883043F4FD
:102AB4007003C1F888300D4B1A68002042F00102FF
:102AC4001A6098601A6822F0847222F480321A60C4
:102AD400074A5A601A6822F480221A60D8604FF0BC
:102AE40000638B60704700BF00ED00E000380240D7
:102AF40010300024DFF834D0002103E00C4B5B5885
:102B0400435004310B480C4B42189A42F6D30B4AFB
:102B140002E0002342F8043B094B9A42F9D3FFF741
:102B2400C3FF00F011F8FFF765FA704700000220B8
:102B3400EC2B0008000000200C0000200C000020FA
:102B4400C0020020FEE7000070B50D4E0D4CA41B22
:102B5400A4100025A54209D10B4E0C4C00F020F81E
:102B6400A41BA4100025A54205D170BD56F825303C
:102B740098470135EEE756F8253098470135F2E7D6
:102B8400E42B0008E42B0008E42B0008E82B0008E1
:102B940002440346934200D1704703F8011BF9E74E
:102BA400F8B500BFF8BC08BC9E467047F8B500BF36
:082BB400F8BC08BC9E46704706
:102BBC0000061016000610160000000000000000B1
:102BCC0001020304060708090000000001020304C7
:082BDC0058D6FF7F0100000044
:042BE400E9010008FB
:042BE800C50100081B
:0C2BEC0001000000100000000024F400B4
:0400000508002AF9CC
:00000001FF
